{"abi":[{"type":"function","name":"canMintFor","inputs":[],"outputs":[{"name":"","type":"bool","internalType":"bool"}],"stateMutability":"nonpayable"},{"type":"function","name":"claim","inputs":[{"name":"gaugeAddress","type":"address","internalType":"address"},{"name":"claimCrv","type":"bool","internalType":"bool"}],"outputs":[],"stateMutability":"nonpayable"},{"type":"function","name":"claimAll","inputs":[{"name":"gaugeAddresses","type":"address[]","internalType":"address[]"},{"name":"claimsCrv","type":"bool[]","internalType":"bool[]"}],"outputs":[],"stateMutability":"nonpayable"}],"bytecode":{"object":"0x60806040525f80546001600160a01b03191673d061d61a4d941c39e5453435b6345dc261c2fce0179055348015610034575f80fd5b506103de806100425f395ff3fe608060405234801561000f575f80fd5b506004361061003f575f3560e01c80633973acfa1461004357806392fd2daf1461005f578063aa9baade14610074575b5f80fd5b61004b610087565b604051901515815260200160405180910390f35b61007261006d36600461025a565b6100fd565b005b6100726100823660046102d7565b6101c8565b5f805460405163a099003360e01b81523060048201523360248201526001600160a01b039091169063a0990033906044016020604051808303815f875af11580156100d4573d5f803e3d5ffd5b505050506040513d601f19601f820116820180604052508101906100f8919061033e565b905090565b604051634274debf60e11b81523360048201526001600160a01b038316906384e9bd7e906024015f604051808303815f87803b15801561013b575f80fd5b505af115801561014d573d5f803e3d5ffd5b5050505080156101c45761015f610087565b156101c4575f546040516327f18ae360e01b81526001600160a01b038481166004830152336024830152909116906327f18ae3906044015f604051808303815f87803b1580156101ad575f80fd5b505af11580156101bf573d5f803e3d5ffd5b505050505b5050565b5f835b808210156101bf576102248686848181106101e8576101e8610360565b90506020020160208101906101fd9190610374565b85858581811061020f5761020f610360565b905060200201602081019061006d919061038d565b6001909101906101cb565b80356001600160a01b0381168114610245575f80fd5b919050565b8015158114610257575f80fd5b50565b5f806040838503121561026b575f80fd5b6102748361022f565b915060208301356102848161024a565b809150509250929050565b5f8083601f84011261029f575f80fd5b50813567ffffffffffffffff8111156102b6575f80fd5b6020830191508360208260051b85010111156102d0575f80fd5b9250929050565b5f805f80604085870312156102ea575f80fd5b843567ffffffffffffffff80821115610301575f80fd5b61030d8883890161028f565b90965094506020870135915080821115610325575f80fd5b506103328782880161028f565b95989497509550505050565b5f6020828403121561034e575f80fd5b81516103598161024a565b9392505050565b634e487b7160e01b5f52603260045260245ffd5b5f60208284031215610384575f80fd5b6103598261022f565b5f6020828403121561039d575f80fd5b81356103598161024a56fea264697066735822122002c62491fcb2179ff7ddb253d037b9fe3ec66ab01dd2d7897ab1706437e2d1cc64736f6c63430008140033","linkReferences":{}},"methodIdentifiers":{"canMintFor()":"3973acfa","claim(address,bool)":"92fd2daf","claimAll(address[],bool[])":"aa9baade"},"id":23}